S00D0000416C61726D2E737265632A
S113000012C02CC02BC02AC029C028C027C026C0BB
S113001025C02BC023C022C021C020C01FC01EC0C9
S11300201DC01CC01BC011241FBECFE5D4E0DEBF21
S1130030CDBF10E0A0E6B0E0E8E8FEE002C0059025
S11300400D92AE3EB107D9F723E0AEEEB0E001C0A9
S11300501D92A935B207E1F71FD214C7D1CF882367
S113006011F0959A0895959808951F920F920FB6DE
S11300700F9211248F939F9383E682BF8091600037
S113008081508093600090916201992319F09150FE
S1130090909362019091C801992319F09150909323
S11300A0C80190916301992319F0915090936301D1
S11300B0811111C08AE08093600080912D02882311
S11300C019F0815080932D028091EE00882319F05D
S11300D081508093EE009F918F910F900FBE0F90EF
S11300E01F901895FF920F931F93CF93DF93F82ED1
S11300F0062F142FC82FD0E0CB5FDE4FC60FD11DC3
S1130100C40FD11DD195C195D1098EE768D68FEF63
S113011066D686E064D68F2D62D680E060D6802FC6
S11301205ED6812F5CD68D2F5AD68C2F58D68FEE63
S113013056D6DF91CF911F910F91FF900895CF93E1
S1130140DF93EC01E7D58A8182958F70805DC3D5FA
S11301508A818F70805DBFD58AE3BDD58981829500
S11301608F70805DB8D589818F70805DB4D58AE346
S1130170B2D5888182958F70805DADD588818F706E
S1130180805DA9D580E2A7D58C8182958F70805D32
S1130190A2D58C818F70805D9ED58FE29CD58D8198
S11301A082958F708770805D96D58D818F70805D0C
S11301B092D5DF91CF910895811104C081E690E03A
S11301C074D50895813021F485E690E06ED50895C4
S11301D0823021F489E690E068D50895833021F4D3
S11301E08DE690E062D50895843021F481E790E0B3
S11301F05CD50895853021F485E790E056D50895BF
S1130200863021F489E790E050D50895873019F4B9
S11302108DE790E04AD5089583B380958F708093DD
S1130220F50283E18093620108958091F50280FFD5
S113023005C040E060E081E055DF089581FF05C01E
S113024040E060E082E04EDF089582FF0BC0849BB3
S113025005C040E060E08DE045DF089540E060E0E7
S11302608EE040DF08956F927F928F929F92AF92BB
S1130270BF92CF92DF92EF92FF920F931F93CF938F
S1130280DF930F2EF2E9AF2EF2E0BF2EF02D0F2EEA
S1130290FEE2CF2EF2E0DF2EF02D0F2EF5E6EF2E4C
S11302A0F1E0FF2EF02D09EC11E00F2EFFEF8F2E61
S11302B0F0E09F2EF02D0F2EF6EF6F2EF2E07F2E42
S11302C0F02DC0E0D0E0CE01B0D5F50181935F01FF
S11302D0CE010196AAD5F60181936F01CE01029653
S11302E0A4D5F70181937F01CE010396A6D5259667
S11302F09C012F733327F80121938F019C01002463
S1130300220F331F001C220F331F001C232F302DFC
S11303102F713327F40121934F01892F9927869553
S1130320869586958F709927F30181933F01CF3E7F
S1130330F1E0DF0741F6DF91CF911F910F91FF901C
S1130340EF90DF90CF90BF90AF909F908F907F9071
S11303506F900895CF93DF938091640190E09C01A6
S1130360220F331F220F331F280F391FC22FD32F01
S1130370FC01EE56FD4F6081822F932F63D5E091EF
S11303806401F0E0E25DFD4F6081CE0101965AD533
S1130390E0916401F0E0EB59FE4F6081CE010296DA
S11303A051D58091640190E0FC01EA50FD4F6081D9
S11303B020E2629FB0011124FC01E150FF4F208133
S11303C0622B002476956795079476956795079434
S11303D0762F602DFC01E753FE4F8081682BCE0100
S11303E003963DD5DF91CF91089560912C028FEF54
S11303F091E028D58FD441E850E066E070E081E0D8
S113040090E073D42FEF85EA9EE021508040904025
S1130410E1F700C0000008958FEF91E006D58093C6
S11304202C02482F61E086E05DDE089560E875E205
S113043080E090E0BBD48C9880B78B7F80BF8FEF37
S113044085BB80EF84BB39D38D9A959A6CD462D4E2
S113045048E850E062E070E080E090E046D485E057
S113046083BF89B7816089BF789483E180936201F7
S11304708CE08093C80184E68093910280932D02DE
S11304802FEF85EA9EE0215080409040E1F700C0C4
S11304900000C2DFE8DE0895C9DF1092EF000F2EDE
S11304A0FBE0CF2EF02D0F2EF1E19F2EF02D68945E
S11304B0AA24A4F80F2EFCE0DF2EF02DC8EFD0E024
S11304C00F2EF0EDBF2EF02D09EF10E00F2EFAEFF6
S11304D0EF2EF0E0FF2EF02D80912D02C0DD8091F3
S11304E06201811101C098DE8091EE00811102C089
S11304F0C092EE002091EF00822E8694869486941A
S1130500869495990AC08091F502882309F44FC115
S11305108091910280932D024AC18091F502882333
S113052021F09091910290932D02211105C083FD39
S1130530A092EF007ADE3BC191E08912EAC021313A
S113054008F4B7C282FF09C0273120F42F5F20933B
S1130550EF002DC19092EF002AC180FF58C02131D5
S113056061F480916401833608F021C1F3DE809147
S113057064018F5F809364011AC1223149F4E091D0
S11305806401F0E0EE56FD4F80818F5F80830FC1E0
S1130590233149F4E0916401F0E0E25DFD4F808194
S11305A08F5F808304C1243149F4E0916401F0E059
S11305B0E150FF4F80818F5F8083F9C0253149F47A
S11305C0E0916401F0E0E753FE4F80818F5F808308
S11305D0EEC0263149F4E0916401F0E0EB59FE4F9E
S11305E08081805E8083E3C0273109F0E0C0809180
S11305F0640190E0FC01EB59FE4F20812F3108F09B
S1130600D6C0FC01EB59FE4F2F5F2083D0C081FF81
S113061071C0213159F480916401882349F19ADE33
S113062080916401815080936401C1C0223179F4C6
S11306308091640190E0FC01EE56FD4F308133233C
S113064049F1FC01EE56FD4F31503083B0C02331E7
S113065079F48091640190E0FC01E25DFD4F30810A
S1130660332351F1FC01E25DFD4F315030839FC0D3
S1130670243181F48091640190E0FC01E150FF4F4A
S11306802081222309F493C0FC01E150FF4F215043
S113069020838DC0253181F48091640190E0FC01B8
S11306A0E753FE4F2081222309F481C0FC01E75364
S11306B0FE4F215020837BC0263149F4E091640130
S11306C0F0E0EB59FE4F80818052808370C0273167
S11306D009F06DC08091640190E0FC01EB59FE4F7C
S11306E02081222309F463C0FC01EB59FE4F215001
S11306F020835DC083FF5BC0223120F02150209312
S1130700EF0055C027DE8091EF00807F8093EF00DB
S11307104EC0213329F5982F9C7039F066DE809104
S1130720EF0081508093EF0042C080FF0BC04091E6
S11307302C024E3138F44F5F40932C0261E086E086
S1130740D1DC35C081FF33C080912C02882379F13C
S1130750482F415040932C0261E086E0C3DC27C05F
S1130760882029F1922F9F70E9F483FF03C010922F
S1130770EF001DC081FF07C0E1E0E81520F420511F
S11307802093EF0014C080FF07C0F2E0F81520F0BA
S1130790205F2093EF000BC082FF09C02F5F2093DE
S11307A0EF0005C083FF03C021502093EF00809128
S11307B0C801811127C0D092C801B882F801108203
S11307C067E0CE0182D18823E9F0849B0DC0F80153
S11307D08081811109C0F7018081823229F441E0CE
S11307E062E08FE07FDC0EC0849B0CC0F801808146
S11307F0811108C0F7018081883021F441E062E072
S11308008FE070DC80916301811150C1D09263014B
S113081081D28091EF0081110CC0CE0190DC8499CB
S113082045C143E950E06FE070E080E090E05DD2C4
S11308303DC1882009F42AC1982F9F7069F58EE77D
S11308404AD28090EF008694869486948694F1E050
S11308508F1208C045E950E061E070E080E090E06C
S113086044D204C0882D8150823040F4882D90E019
S113087042EA50E061E070E0029737D2882D82505E
S1130880823008F013C1882D90E04EEA50E061E018
S113089070E003972AD20AC191E08912F7C081312E
S11308A008F4F4C085EB90E000D28091EE0084302F
S11308B028F48091EF00813109F492C060916401C1
S11308C070E06F5F7F4F882777FD8095982FA3D1C5
S11308D0ECD18091EF008231C1F44FEB50E060E045
S11308E070E081E090E001D28091EE00843008F461
S11308F0DDC0E0916401F0E0EE56FD4F608170E0F0
S113090080E090E088D1D1D1D1C08331C1F447ECEB
S113091050E060E070E081E090E0E7D18091EE008B
S1130920843008F4C3C0E0916401F0E0E25DFD4F5F
S1130930608170E080E090E06ED1B7D1B7C0982FAD
S11309409451923008F04CC04EEC50E060E070E0FE
S113095081E090E0CAD18091EE00843020F480914F
S1130960EF008431B1F0E0916401F0E0E150FF4F19
S113097080818A3018F485ED90E097D1E09164018C
S1130980F0E0E150FF4F608170E080E090E043D1FF
S11309908CD147ED50E069E070E081E090E0A5D1B2
S11309A08091EE00843028F48091EF00853109F4C1
S11309B07DC0E0916401F0E0E753FE4F80818A300E
S11309C018F485ED90E071D1E0916401F0E0E75313
S11309D0FE4F608170E080E090E01DD166D166C07A
S11309E08651823008F062C0E0916401F0E0EB5976
S11309F0FE4F8080782C76947694769476947694D0
S1130A0049ED50E060E070E081E090E06ED18091CB
S1130A10EE00843020F48091EF00863111F0872DB0
S1130A20CBDB711043C0EFE18E224CEE50E068E066
S1130A3070E081E090E059D181100CC08091EE000B
S1130A40843020F48091EF008731C1F08EED90E086
S1130A502CD114C08091EE00843020F48091EF00FA
S1130A60873161F0F9E0F81518F085ED90E01DD1BB
S1130A70682D70E080E090E0CED017D141EE50E0D8
S1130A806AE070E081E090E030D110C0813371F40D
S1130A9083EE90E00AD18091EE00843038F06091CA
S1130AA02C0270E080E090E0B6D0FFD01092F50206
S1130AB013CD213309F056CE2ECE11B88CE080B977
S1130AC08FEF82B984E086BF089524EA26BF28EE1A
S1130AD033E004C02150310909F44BC006B607FEC7
S1130AE0F9CFFC0120812E7F23B924E826BF06B666
S1130AF007FEFDCF21B1287109F43DC0FC0121811D
S1130B0023B924E826BF06B607FEFDCF21B128721B
S1130B10A1F124EA26BF06B607FEFDCFFC01208121
S1130B20216023B924E826BF06B607FEFDCF0E9B3D
S1130B3026C06623D1F0FC0120E030E0862F90E04F
S1130B40019774E854EC2817390714F456BF01C010
S1130B5076BF06B607FEFDCF41B1407591F043B1B3
S1130B6041932F5F3F4F261770F384E986BF81E0DE
S1130B70089580E0089580E0089580E0089580E07D
S1130B80089580E0089598B3907F98BB98B3282F78
S1130B9022952F70922B98BBC49A95E09A95F1F701
S1130BA00000C49898B3907F98BB98B38F70892B3A
S1130BB088BBC49A85E08A95F1F70000C49808952B
S1130BC00F931F93482F8823D9F001E010E020E011
S1130BD030E0D901C801880F991FAA1FBB1F8C01DF
S1130BE09D01000F111F221F331F000F111F221F11
S1130BF0331F080F191F2A1F3B1F415051F704C010
S1130C0001E010E020E030E0602F712F822F932F5D
S1130C101F910F910895BF92CF92DF92EF92FF92AE
S1130C200F931F93CF93DF936B017C0115E000E0DA
S1130C300F2EF0E3BF2EF02D812FC2DF9B01AC01FC
S1130C40C616D706E806F90678F0C02FD0E0C051E2
S1130C50DF4FC701B601C7D0205D28830F5FC62EC2
S1130C60D72EE82EF92E08C0002331F0E02FF0E053
S1130C70E051FF4FB0820F5F1150F0F6011104C034
S1130C8080E38093F00001E0E02FF0E0E051FF4FBB
S1130C90108280EF90E0DF91CF911F910F91FF9030
S1130CA0EF90DF90CF90BF900895CF93DF93EC0146
S1130CB0C59A8881882359F0219665DF87EC90E0F6
S1130CC00197F1F700C0000089918111F6CFC59812
S1130CD0DF91CF910895C59A56DF87EC90E0019794
S1130CE0F1F700C00000C5980895CF93DF93EA019F
S1130CF090E4899F600D1124862F806844DF87EC7F
S1130D0090E00197F1F700C00000CE01CEDFDF9143
S1130D10CF91089581E037DF8FE39FE10197F1F7E9
S1130D2000C0000008952FEF80E792E0215080403A
S1130D309040E1F700C00000C598C498BD9ABC9AE1
S1130D40B89AB99ABA9ABB9A83E31DDF87EC90E00C
S1130D500197F1F700C0000083E315DF87EC90E012
S1130D600197F1F700C0000088B3807F88BBC19A67
S1130D70C49A95E09A95F1F70000C49887EC90E046
S1130D800197F1F700C0000088E2FDDE87EC90E0F7
S1130D900197F1F700C000008CE0F5DE87EC90E0ED
S1130DA00197F1F700C00000B5DF08959B01AC0185
S1130DB082E08BB988E18AB986E080BD60E874E896
S1130DC08EE190E010D0DA01C9010197A109B109BF
S1130DD0492F5A2F6B2F772740BD89B908955D9B02
S1130DE0FECF8CB90895A1E21A2EAA1BBB1BFD01EC
S1130DF00DC0AA1FBB1FEE1FFF1FA217B307E407F6
S1130E00F50720F0A21BB30BE40BF50B661F771F4D
S1130E10881F991F1A9469F760957095809590952D
S1130E209B01AC01BD01CF010895E199FECF9FBBA9
S1130E308EBBE09A99278DB30895A8E1B0E042E013
S1130E4050E012C0262FE199FECF9FBB8EBB2DBB75
S1130E500FB6F894E29AE19A0FBE01960895F2DF74
S1130E60272FF1CFDC01CB01FC01E199FECF06C0B5
S1130E70FFBBEEBBE09A31960DB20D92415050404B
S10B0E80B8F70895F894FFCFC0
S1130E880A414C4C0053756E004D6F6E00547565E5
S1130E9800576564005468750046726900536174AC
S1130EA800536176656421005374617274696E67D6
S1130EB82E2E003E00416C61726D20436F6E666990
S1130EC8670054696D6520436F6E66696700566FE5
S1130ED86C756D6500416C61726D2049643A004619
S1130EE86F6C64657220004D7573696320005469E2
S1130EF86D6520480030004D0044617920002D2D97
S1110F08002F00566F6C756D65203D200000B3
S903042CCC
